{
  "contractName": "ProductVerification",
  "abi": [
    {
      "anonymous": false,
      "inputs": [
        {
          "indexed": false,
          "internalType": "string",
          "name": "prodId",
          "type": "string"
        },
        {
          "indexed": false,
          "internalType": "address",
          "name": "oldOwner",
          "type": "address"
        },
        {
          "indexed": false,
          "internalType": "address",
          "name": "newOwner",
          "type": "address"
        }
      ],
      "name": "OwnershipTransferred",
      "type": "event"
    },
    {
      "anonymous": false,
      "inputs": [
        {
          "indexed": false,
          "internalType": "string",
          "name": "prodId",
          "type": "string"
        },
        {
          "indexed": false,
          "internalType": "address",
          "name": "owner",
          "type": "address"
        }
      ],
      "name": "ProductAdded",
      "type": "event"
    },
    {
      "inputs": [
        {
          "internalType": "string",
          "name": "",
          "type": "string"
        }
      ],
      "name": "products",
      "outputs": [
        {
          "internalType": "string",
          "name": "prodId",
          "type": "string"
        },
        {
          "internalType": "string",
          "name": "location",
          "type": "string"
        },
        {
          "internalType": "uint256",
          "name": "timestamp",
          "type": "uint256"
        },
        {
          "internalType": "string",
          "name": "nfcHash",
          "type": "string"
        },
        {
          "internalType": "address",
          "name": "owner",
          "type": "address"
        }
      ],
      "stateMutability": "view",
      "type": "function"
    },
    {
      "inputs": [
        {
          "internalType": "string",
          "name": "_prodId",
          "type": "string"
        },
        {
          "internalType": "string",
          "name": "_location",
          "type": "string"
        },
        {
          "internalType": "string",
          "name": "_nfcHash",
          "type": "string"
        }
      ],
      "name": "addProduct",
      "outputs": [],
      "stateMutability": "nonpayable",
      "type": "function"
    },
    {
      "inputs": [
        {
          "internalType": "string",
          "name": "_prodId",
          "type": "string"
        },
        {
          "internalType": "string",
          "name": "_newLocation",
          "type": "string"
        },
        {
          "internalType": "string",
          "name": "_newNfcHash",
          "type": "string"
        },
        {
          "internalType": "string",
          "name": "_prevNfcHash",
          "type": "string"
        },
        {
          "internalType": "address",
          "name": "_newOwner",
          "type": "address"
        }
      ],
      "name": "transferOwnership",
      "outputs": [],
      "stateMutability": "nonpayable",
      "type": "function"
    },
    {
      "inputs": [
        {
          "internalType": "string",
          "name": "_prodId",
          "type": "string"
        }
      ],
      "name": "getProduct",
      "outputs": [
        {
          "internalType": "string",
          "name": "",
          "type": "string"
        },
        {
          "internalType": "string",
          "name": "",
          "type": "string"
        },
        {
          "internalType": "uint256",
          "name": "",
          "type": "uint256"
        },
        {
          "internalType": "string",
          "name": "",
          "type": "string"
        },
        {
          "internalType": "address",
          "name": "",
          "type": "address"
        }
      ],
      "stateMutability": "view",
      "type": "function"
    }
  ],
  "bytecode": "0x608060405234801561001057600080fd5b506111c9806100206000396000f3fe608060405234801561001057600080fd5b506004361061004c5760003560e01c80630186a423146100515780630e34b00e1461008557806330010f5e146100a157806368111cce146100bd575b600080fd5b61006b60048036038101906100669190610a7b565b6100f1565b60405161007c959493929190610ecd565b60405180910390f35b61009f600480360381019061009a9190610abc565b6102f5565b005b6100bb60048036038101906100b69190610b53565b61049c565b005b6100d760048036038101906100d29190610a7b565b6106e3565b6040516100e8959493929190610ecd565b60405180910390f35b60008180516020810182018051848252602083016020850120818352809550505050505060009150905080600001805461012a906110db565b80601f0160208091040260200160405190810160405280929190818152602001828054610156906110db565b80156101a35780601f10610178576101008083540402835291602001916101a3565b820191906000526020600020905b81548152906001019060200180831161018657829003601f168201915b5050505050908060010180546101b8906110db565b80601f01602080910402602001604051908101604052809291908181526020018280546101e4906110db565b80156102315780601f1061020657610100808354040283529160200191610231565b820191906000526020600020905b81548152906001019060200180831161021457829003601f168201915b50505050509080600201549080600301805461024c906110db565b80601f0160208091040260200160405190810160405280929190818152602001828054610278906110db565b80156102c55780601f1061029a576101008083540402835291602001916102c5565b820191906000526020600020905b8154815290600101906020018083116102a857829003601f168201915b5050505050908060040160009054906101000a900473ffffffffffffffffffffffffffffffffffffffff16905085565b600080846040516103069190610e48565b90815260200160405180910390206002015414610358576040517f08c379a000000000000000000000000000000000000000000000000000000000815260040161034f90610f35565b60405180910390fd5b6040518060a001604052808481526020018381526020014281526020018281526020013373ffffffffffffffffffffffffffffffffffffffff168152506000846040516103a59190610e48565b908152602001604051809103902060008201518160000190805190602001906103cf92919061095b565b5060208201518160010190805190602001906103ec92919061095b565b5060408201518160020155606082015181600301908051906020019061041392919061095b565b5060808201518160040160006101000a81548173ffffffffffffffffffffffffffffffffffffffff021916908373ffffffffffffffffffffffffffffffffffffffff1602179055509050507f4cc39cf92556f56ba17184d656cf1bbcfd5f8e8d7b1071d0e295017b9f70f41b833360405161048f929190610e5f565b60405180910390a1505050565b600080866040516104ad9190610e48565b90815260200160405180910390209050600081600201541415610505576040517f08c379a00000000000000000000000000000000000000000000000000000000081526004016104fc90610f55565b60405180910390fd5b8060040160009054906101000a900473ffffffffffffffffffffffffffffffffffffffff1673ffffffffffffffffffffffffffffffffffffffff163373ffffffffffffffffffffffffffffffffffffffff1614610597576040517f08c379a000000000000000000000000000000000000000000000000000000000815260040161058e90610f75565b60405180910390fd5b8280519060200120816003016040516105b09190610e31565b6040518091039020146105f8576040517f08c379a00000000000000000000000000000000000000000000000000000000081526004016105ef90610f95565b60405180910390fd5b60008160040160009054906101000a900473ffffffffffffffffffffffffffffffffffffffff1690508582600101908051906020019061063992919061095b565b504282600201819055508482600301908051906020019061065b92919061095b565b50828260040160006101000a81548173ffffffffffffffffffffffffffffffffffffffff021916908373ffffffffffffffffffffffffffffffffffffffff1602179055507f6840904f5b31827f74e1497360da245f56e530c8c3de3163a2d31f11493273c68782856040516106d293929190610e8f565b60405180910390a150505050505050565b606080600060606000806000876040516106fd9190610e48565b90815260200160405180910390206040518060a0016040529081600082018054610726906110db565b80601f0160208091040260200160405190810160405280929190818152602001828054610752906110db565b801561079f5780601f106107745761010080835404028352916020019161079f565b820191906000526020600020905b81548152906001019060200180831161078257829003601f168201915b505050505081526020016001820180546107b8906110db565b80601f01602080910402602001604051908101604052809291908181526020018280546107e4906110db565b80156108315780601f1061080657610100808354040283529160200191610831565b820191906000526020600020905b81548152906001019060200180831161081457829003601f168201915b5050505050815260200160028201548152602001600382018054610854906110db565b80601f0160208091040260200160405190810160405280929190818152602001828054610880906110db565b80156108cd5780601f106108a2576101008083540402835291602001916108cd565b820191906000526020600020905b8154815290600101906020018083116108b057829003601f168201915b505050505081526020016004820160009054906101000a900473ffffffffffffffffffffffffffffffffffffffff1673ffffffffffffffffffffffffffffffffffffffff1673ffffffffffffffffffffffffffffffffffffffff1681525050905080600001518160200151826040015183606001518460800151955095509550955095505091939590929450565b828054610967906110db565b90600052602060002090601f01602090048101928261098957600085556109d0565b82601f106109a257805160ff19168380011785556109d0565b828001600101855582156109d0579182015b828111156109cf5782518255916020019190600101906109b4565b5b5090506109dd91906109e1565b5090565b5b808211156109fa5760008160009055506001016109e2565b5090565b6000610a11610a0c84610fe6565b610fb5565b905082815260208101848484011115610a2957600080fd5b610a34848285611099565b509392505050565b600081359050610a4b8161117c565b92915050565b600082601f830112610a6257600080fd5b8135610a728482602086016109fe565b91505092915050565b600060208284031215610a8d57600080fd5b600082013567ffffffffffffffff811115610aa757600080fd5b610ab384828501610a51565b91505092915050565b600080600060608486031215610ad157600080fd5b600084013567ffffffffffffffff811115610aeb57600080fd5b610af786828701610a51565b935050602084013567ffffffffffffffff811115610b1457600080fd5b610b2086828701610a51565b925050604084013567ffffffffffffffff811115610b3d57600080fd5b610b4986828701610a51565b9150509250925092565b600080600080600060a08688031215610b6b57600080fd5b600086013567ffffffffffffffff811115610b8557600080fd5b610b9188828901610a51565b955050602086013567ffffffffffffffff811115610bae57600080fd5b610bba88828901610a51565b945050604086013567ffffffffffffffff811115610bd757600080fd5b610be388828901610a51565b935050606086013567ffffffffffffffff811115610c0057600080fd5b610c0c88828901610a51565b9250506080610c1d88828901610a3c565b9150509295509295909350565b610c338161105d565b82525050565b60008154610c46816110db565b610c508186611036565b94506001821660008114610c6b5760018114610c7c57610caf565b60ff19831686528186019350610caf565b610c8585611016565b60005b83811015610ca757815481890152600182019150602081019050610c88565b838801955050505b50505092915050565b6000610cc38261102b565b610ccd8185611041565b9350610cdd8185602086016110a8565b610ce68161116b565b840191505092915050565b6000610cfc8261102b565b610d068185611052565b9350610d168185602086016110a8565b80840191505092915050565b6000610d2f601683611041565b91507f50726f6475637420616c726561647920657869737473000000000000000000006000830152602082019050919050565b6000610d6f601183611041565b91507f50726f64756374206e6f7420666f756e640000000000000000000000000000006000830152602082019050919050565b6000610daf601783611041565b91507f4f6e6c79206f776e65722063616e207472616e736665720000000000000000006000830152602082019050919050565b6000610def601183611041565b91507f4e46432068617368206d69736d617463680000000000000000000000000000006000830152602082019050919050565b610e2b8161108f565b82525050565b6000610e3d8284610c39565b915081905092915050565b6000610e548284610cf1565b915081905092915050565b60006040820190508181036000830152610e798185610cb8565b9050610e886020830184610c2a565b9392505050565b60006060820190508181036000830152610ea98186610cb8565b9050610eb86020830185610c2a565b610ec56040830184610c2a565b949350505050565b600060a0820190508181036000830152610ee78188610cb8565b90508181036020830152610efb8187610cb8565b9050610f0a6040830186610e22565b8181036060830152610f1c8185610cb8565b9050610f2b6080830184610c2a565b9695505050505050565b60006020820190508181036000830152610f4e81610d22565b9050919050565b60006020820190508181036000830152610f6e81610d62565b9050919050565b60006020820190508181036000830152610f8e81610da2565b9050919050565b60006020820190508181036000830152610fae81610de2565b9050919050565b6000604051905081810181811067ffffffffffffffff82111715610fdc57610fdb61113c565b5b8060405250919050565b600067ffffffffffffffff8211156110015761100061113c565b5b601f19601f8301169050602081019050919050565b60008190508160005260206000209050919050565b600081519050919050565b600081905092915050565b600082825260208201905092915050565b600081905092915050565b60006110688261106f565b9050919050565b600073ffffffffffffffffffffffffffffffffffffffff82169050919050565b6000819050919050565b82818337600083830152505050565b60005b838110156110c65780820151818401526020810190506110ab565b838111156110d5576000848401525b50505050565b600060028204905060018216806110f357607f821691505b602082108114156111075761110661110d565b5b50919050565b7f4e487b7100000000000000000000000000000000000000000000000000000000600052602260045260246000fd5b7f4e487b7100000000000000000000000000000000000000000000000000000000600052604160045260246000fd5b6000601f19601f8301169050919050565b6111858161105d565b811461119057600080fd5b5056fea2646970667358221220411bf1161caf29ff535276287c1d23adaec8cfe8ebce478f7c45f9af9429f16864736f6c63430008000033",
  "immutableReferences": {},
  "source": "// SPDX-License-Identifier: MIT\r\npragma solidity ^0.8.0;\r\n\r\ncontract ProductVerification {\r\n    struct Product {\r\n        string prodId;\r\n        string location;\r\n        uint256 timestamp;\r\n        string nfcHash;\r\n        address owner;\r\n    }\r\n\r\n    mapping(string => Product) public products;\r\n\r\n    event ProductAdded(string prodId, address owner);\r\n    event OwnershipTransferred(string prodId, address oldOwner, address newOwner);\r\n\r\n    function addProduct(\r\n        string memory _prodId,\r\n        string memory _location,\r\n        string memory _nfcHash\r\n    ) public {\r\n        require(products[_prodId].timestamp == 0, \"Product already exists\");\r\n\r\n        products[_prodId] = Product({\r\n            prodId: _prodId,\r\n            location: _location,\r\n            timestamp: block.timestamp,\r\n            nfcHash: _nfcHash,\r\n            owner: msg.sender\r\n        });\r\n\r\n        emit ProductAdded(_prodId, msg.sender);\r\n    }\r\n\r\n    function transferOwnership(\r\n        string memory _prodId,\r\n        string memory _newLocation,\r\n        string memory _newNfcHash,\r\n        string memory _prevNfcHash,\r\n        address _newOwner\r\n    ) public {\r\n        Product storage product = products[_prodId];\r\n\r\n        require(product.timestamp != 0, \"Product not found\");\r\n        require(msg.sender == product.owner, \"Only owner can transfer\");\r\n        require(keccak256(bytes(product.nfcHash)) == keccak256(bytes(_prevNfcHash)), \"NFC hash mismatch\");\r\n\r\n        address oldOwner = product.owner;\r\n\r\n        product.location = _newLocation;\r\n        product.timestamp = block.timestamp;\r\n        product.nfcHash = _newNfcHash;\r\n        product.owner = _newOwner;\r\n\r\n        emit OwnershipTransferred(_prodId, oldOwner, _newOwner);\r\n    }\r\n\r\n    function getProduct(string memory _prodId) public view returns (\r\n        string memory,\r\n        string memory,\r\n        uint256,\r\n        string memory,\r\n        address\r\n    ) {\r\n        Product memory p = products[_prodId];\r\n        return (p.prodId, p.location, p.timestamp, p.nfcHash, p.owner);\r\n    }\r\n}\r\n",
  "sourcePath": "E:\\HackathonFiles\\codher'25\\codher-25\\blockchain\\contracts\\ProductVerification.sol",
  "compiler": {
    "name": "solc",
    "version": "0.8.0+commit.c7dfd78e.Emscripten.clang"
  },
  "schemaVersion": "3.4.16",
  "updatedAt": "2025-04-05T10:06:04.805Z",
  "devdoc": {
    "kind": "dev",
    "methods": {},
    "version": 1
  },
  "userdoc": {
    "kind": "user",
    "methods": {},
    "version": 1
  }
}